:020000000A28CC
:10000800FE00030EF0000A08F100892A0B2883017C
:10001800022A0830A001A1004130A2003508A3003F
:100028003608A4003708A500E7202008AF002108FB
:10003800B0002208B100D730B200A330B3003E3080
:10004800B400D621031C2B28B501B60108003330B3
:10005800AF005330B0004030B1003508B200360868
:10006800B3003708B400D621031C28286630AF0037
:100078004630B0004030B1003508B2003608B30051
:100088003708B400D62103184D288030B501B600D2
:1000980008009A30AF003930B0004030B100350860
:1000A800B2003608B3003708B400D6210318602818
:1000B800C030B501B60008003330AF00B0004030A2
:1000C800B1003508B2003608B3003708B400D621AD
:1000D80003187228E030B501B6000800CD30AF0033
:1000E8002C30B0004030B1003508B2003608B300FB
:1000F8003708B400D62103188528F030B501B600BA
:1001080008006630AF002630B0004030B100350836
:10011800B2003608B3003708B400D621031898286F
:10012800F830B501B60008002030AF01B00040300B
:10013800B1003508B2003608B3003708B400D6213C
:100148000318AA28FC30B501B60008009A30AF00A1
:100158001930B0004030B1003508B2003608B3009D
:100168003708B400D6210318BD28FE30B501B60003
:100178000800CD30AF000C30B0004030B100350879
:10018800B2003608B3003708B400D6210318D028C7
:10019800FF30B501B60008004030AF01B001B10032
:1001A8003508B2003608B3003708B400D621031862
:1001B800E2288030B500FF30B6000800C030B50036
:1001C800FF30B60008002308A6002408A700250869
:1001D800A8000310270D280DAD002D08031DF828D1
:1001E800A001A101A20108002008A6002108A7007B
:1001F8002208A8000310270D280DAE002E08031DA5
:100208000929A001A101A20108008930AA01AB01B6
:10021800AC012E07A600AD022508AE002208AE06E6
:100228008030AE051830A417A501A117A201A900B6
:100238000310AA0DAB0DAC0D22082502031D2A29B7
:1002480021082402031D2A2920082302031C382917
:100258002008A3022108031C210FA4022208031C62
:10026800220AA5022A140310A30DA40DA50DA90B9B
:100278001C292A08F2002B08F3002C08F4002D088A
:10028800F5002E08F60094217208A0007308A1005A
:100298007408A2000800A101F91F5929F809F909F1
:1002A800F80A0319F90AA101A10AFB1F6229FA0930
:1002B800FB09FA0A0319FB0A0130A106A201A301EE
:1002C8007808790403198729A001A00AF91B702965
:1002D8000310F80DF90D69290310A20DA30D790873
:1002E8007B02031D792978087A02031C8329780880
:1002F800FA027908031CFB03FB0222140310F90C11
:10030800F80CA00B7029210803198F29A209A30949
:10031800A20A0319A30A2308F9002208F800080012
:10032800750803199C29740873047204031DA52910
:10033800F201F301F4010800F50A0310F40CF30CC0
:10034800F20CFE3074050319B429A029F50AF20A43
:100358000319F30A0319F40A0310F40CF30CF20C52
:10036800FF3074050319C229AA2902307502031C3B
:10037800C429F5030310F20DF30DF40DF31FB92989
:10038800751CF3130310F50C7508F900F801F70153
:100398007708F2047808F3047908F4047608031D52
:1003A800F4170800B11FE5292F08003CAF003008FA
:1003B800031C300F003CB0003108031C310F803C97
:1003C800B100B41FF4293208003CB2003308031C02
:1003D800330F003CB3003408031C340F803CB400D6
:1003E8008030B106B40634083102031D0800330812
:1003F8003002031D080032082F02080091227E22D5
:1004080029308312BA009630B900A630B800B80B6C
:100418000B2AB90B0B2ABA0B0B2A29222808BB0076
:100428002908BC002A08BD003B08B5003C08B600F6
:100438003D08B7000D203608BF003508BE003F084C
:10044800F3003E08F2009022042A83129F149F189A
:100458002B2A1E08AB000A30F800F9012B08F2001D
:100468000530F301F400F50165227308FB007208FA
:10047800FA004F217908A5007808A4004A22240828
:10048800A8002508A9002608AA000800A701A51F9A
:10049800542AA409A509A40A0319A50AA701A70AA9
:1004A8002408F2002508F3008E30F401F50027082F
:1004B800F60094217208A4007308A5007408A60029
:1004C8000800F601F701721C6F2A7408F607031872
:1004D800F70A7508F7070310F40DF50D0310F30C70
:1004E800F20C72087304031D672A7708F300760874
:1004F800F2000800831605160C3083129F041F149F
:100508008316051085100511080071088A00700E01
:0C0518008300FE0E7E0E090008000800A3
:02400E00F4FFBD
:00000001FF
